{
  "_format": "hh-sol-artifact-1",
  "contractName": "TapOrder",
  "sourceName": "contracts/TapOrder.sol",
  "abi": [
    {
      "inputs": [
        {
          "internalType": "address",
          "name": "_priceFeedAdapter",
          "type": "address"
        },
        {
          "internalType": "address",
          "name": "_payoutPool",
          "type": "address"
        }
      ],
      "stateMutability": "nonpayable",
      "type": "constructor"
    },
    {
      "inputs": [
        {
          "internalType": "uint256",
          "name": "orderId",
          "type": "uint256"
        }
      ],
      "name": "AlreadySettled",
      "type": "error"
    },
    {
      "inputs": [
        {
          "internalType": "string",
          "name": "asset",
          "type": "string"
        }
      ],
      "name": "AssetNotWhitelisted",
      "type": "error"
    },
    {
      "inputs": [],
      "name": "EnforcedPause",
      "type": "error"
    },
    {
      "inputs": [],
      "name": "ExpectedPause",
      "type": "error"
    },
    {
      "inputs": [
        {
          "internalType": "uint256",
          "name": "required",
          "type": "uint256"
        },
        {
          "internalType": "uint256",
          "name": "available",
          "type": "uint256"
        }
      ],
      "name": "InsufficientLiquidity",
      "type": "error"
    },
    {
      "inputs": [
        {
          "internalType": "uint256",
          "name": "duration",
          "type": "uint256"
        }
      ],
      "name": "InvalidDuration",
      "type": "error"
    },
    {
      "inputs": [
        {
          "internalType": "uint256",
          "name": "multiplierBps",
          "type": "uint256"
        }
      ],
      "name": "InvalidMultiplier",
      "type": "error"
    },
    {
      "inputs": [
        {
          "internalType": "uint256",
          "name": "orderId",
          "type": "uint256"
        },
        {
          "internalType": "uint8",
          "name": "status",
          "type": "uint8"
        }
      ],
      "name": "OrderNotOpen",
      "type": "error"
    },
    {
      "inputs": [
        {
          "internalType": "address",
          "name": "owner",
          "type": "address"
        }
      ],
      "name": "OwnableInvalidOwner",
      "type": "error"
    },
    {
      "inputs": [
        {
          "internalType": "address",
          "name": "account",
          "type": "address"
        }
      ],
      "name": "OwnableUnauthorizedAccount",
      "type": "error"
    },
    {
      "inputs": [],
      "name": "ReentrancyGuardReentrantCall",
      "type": "error"
    },
    {
      "inputs": [
        {
          "internalType": "string",
          "name": "asset",
          "type": "string"
        }
      ],
      "name": "StalePriceFeed",
      "type": "error"
    },
    {
      "inputs": [],
      "name": "ZeroStake",
      "type": "error"
    },
    {
      "anonymous": false,
      "inputs": [
        {
          "indexed": true,
          "internalType": "string",
          "name": "assetKey",
          "type": "string"
        },
        {
          "indexed": false,
          "internalType": "address",
          "name": "feed",
          "type": "address"
        }
      ],
      "name": "AssetAdded",
      "type": "event"
    },
    {
      "anonymous": false,
      "inputs": [
        {
          "indexed": true,
          "internalType": "uint256",
          "name": "orderId",
          "type": "uint256"
        },
        {
          "indexed": true,
          "internalType": "address",
          "name": "user",
          "type": "address"
        },
        {
          "indexed": false,
          "internalType": "string",
          "name": "assetKey",
          "type": "string"
        },
        {
          "indexed": false,
          "internalType": "int256",
          "name": "targetPrice",
          "type": "int256"
        },
        {
          "indexed": false,
          "internalType": "bool",
          "name": "isAbove",
          "type": "bool"
        },
        {
          "indexed": false,
          "internalType": "uint256",
          "name": "stake",
          "type": "uint256"
        },
        {
          "indexed": false,
          "internalType": "uint256",
          "name": "multiplierBps",
          "type": "uint256"
        },
        {
          "indexed": false,
          "internalType": "uint256",
          "name": "expiry",
          "type": "uint256"
        }
      ],
      "name": "OrderCreated",
      "type": "event"
    },
    {
      "anonymous": false,
      "inputs": [
        {
          "indexed": true,
          "internalType": "uint256",
          "name": "orderId",
          "type": "uint256"
        },
        {
          "indexed": true,
          "internalType": "address",
          "name": "user",
          "type": "address"
        }
      ],
      "name": "OrderLost",
      "type": "event"
    },
    {
      "anonymous": false,
      "inputs": [
        {
          "indexed": true,
          "internalType": "uint256",
          "name": "orderId",
          "type": "uint256"
        },
        {
          "indexed": true,
          "internalType": "address",
          "name": "user",
          "type": "address"
        },
        {
          "indexed": false,
          "internalType": "uint256",
          "name": "payout",
          "type": "uint256"
        }
      ],
      "name": "OrderWon",
      "type": "event"
    },
    {
      "anonymous": false,
      "inputs": [
        {
          "indexed": true,
          "internalType": "address",
          "name": "previousOwner",
          "type": "address"
        },
        {
          "indexed": true,
          "internalType": "address",
          "name": "newOwner",
          "type": "address"
        }
      ],
      "name": "OwnershipTransferred",
      "type": "event"
    },
    {
      "anonymous": false,
      "inputs": [
        {
          "indexed": false,
          "internalType": "address",
          "name": "account",
          "type": "address"
        }
      ],
      "name": "Paused",
      "type": "event"
    },
    {
      "anonymous": false,
      "inputs": [
        {
          "indexed": false,
          "internalType": "bool",
          "name": "isPaused",
          "type": "bool"
        }
      ],
      "name": "PausedToggled",
      "type": "event"
    },
    {
      "anonymous": false,
      "inputs": [
        {
          "indexed": false,
          "internalType": "address",
          "name": "account",
          "type": "address"
        }
      ],
      "name": "Unpaused",
      "type": "event"
    },
    {
      "inputs": [],
      "name": "DURATION_15M",
      "outputs": [
        {
          "internalType": "uint256",
          "name": "",
          "type": "uint256"
        }
      ],
      "stateMutability": "view",
      "type": "function"
    },
    {
      "inputs": [],
      "name": "DURATION_1M",
      "outputs": [
        {
          "internalType": "uint256",
          "name": "",
          "type": "uint256"
        }
      ],
      "stateMutability": "view",
      "type": "function"
    },
    {
      "inputs": [],
      "name": "DURATION_5M",
      "outputs": [
        {
          "internalType": "uint256",
          "name": "",
          "type": "uint256"
        }
      ],
      "stateMutability": "view",
      "type": "function"
    },
    {
      "inputs": [
        {
          "internalType": "string",
          "name": "assetKey",
          "type": "string"
        },
        {
          "internalType": "address",
          "name": "feed",
          "type": "address"
        }
      ],
      "name": "addAsset",
      "outputs": [],
      "stateMutability": "nonpayable",
      "type": "function"
    },
    {
      "inputs": [
        {
          "internalType": "uint256",
          "name": "",
          "type": "uint256"
        }
      ],
      "name": "allowedMultipliers",
      "outputs": [
        {
          "internalType": "bool",
          "name": "",
          "type": "bool"
        }
      ],
      "stateMutability": "view",
      "type": "function"
    },
    {
      "inputs": [
        {
          "internalType": "string",
          "name": "",
          "type": "string"
        }
      ],
      "name": "assetFeeds",
      "outputs": [
        {
          "internalType": "address",
          "name": "",
          "type": "address"
        }
      ],
      "stateMutability": "view",
      "type": "function"
    },
    {
      "inputs": [
        {
          "internalType": "uint256[]",
          "name": "orderIds",
          "type": "uint256[]"
        }
      ],
      "name": "batchSettle",
      "outputs": [],
      "stateMutability": "nonpayable",
      "type": "function"
    },
    {
      "inputs": [
        {
          "internalType": "string",
          "name": "assetKey",
          "type": "string"
        },
        {
          "internalType": "int256",
          "name": "targetPrice",
          "type": "int256"
        },
        {
          "internalType": "bool",
          "name": "isAbove",
          "type": "bool"
        },
        {
          "internalType": "uint256",
          "name": "durationSecs",
          "type": "uint256"
        },
        {
          "internalType": "uint256",
          "name": "multiplierBps",
          "type": "uint256"
        }
      ],
      "name": "createOrder",
      "outputs": [],
      "stateMutability": "payable",
      "type": "function"
    },
    {
      "inputs": [],
      "name": "nextOrderId",
      "outputs": [
        {
          "internalType": "uint256",
          "name": "",
          "type": "uint256"
        }
      ],
      "stateMutability": "view",
      "type": "function"
    },
    {
      "inputs": [
        {
          "internalType": "uint256",
          "name": "",
          "type": "uint256"
        }
      ],
      "name": "orders",
      "outputs": [
        {
          "internalType": "address",
          "name": "user",
          "type": "address"
        },
        {
          "internalType": "string",
          "name": "assetKey",
          "type": "string"
        },
        {
          "internalType": "int256",
          "name": "targetPrice",
          "type": "int256"
        },
        {
          "internalType": "bool",
          "name": "isAbove",
          "type": "bool"
        },
        {
          "internalType": "uint256",
          "name": "stake",
          "type": "uint256"
        },
        {
          "internalType": "uint256",
          "name": "multiplierBps",
          "type": "uint256"
        },
        {
          "internalType": "uint256",
          "name": "expiry",
          "type": "uint256"
        },
        {
          "internalType": "enum TapOrder.OrderStatus",
          "name": "status",
          "type": "uint8"
        }
      ],
      "stateMutability": "view",
      "type": "function"
    },
    {
      "inputs": [],
      "name": "owner",
      "outputs": [
        {
          "internalType": "address",
          "name": "",
          "type": "address"
        }
      ],
      "stateMutability": "view",
      "type": "function"
    },
    {
      "inputs": [],
      "name": "pause",
      "outputs": [],
      "stateMutability": "nonpayable",
      "type": "function"
    },
    {
      "inputs": [],
      "name": "paused",
      "outputs": [
        {
          "internalType": "bool",
          "name": "",
          "type": "bool"
        }
      ],
      "stateMutability": "view",
      "type": "function"
    },
    {
      "inputs": [],
      "name": "payoutPool",
      "outputs": [
        {
          "internalType": "contract PayoutPool",
          "name": "",
          "type": "address"
        }
      ],
      "stateMutability": "view",
      "type": "function"
    },
    {
      "inputs": [],
      "name": "priceFeedAdapter",
      "outputs": [
        {
          "internalType": "contract PriceFeedAdapter",
          "name": "",
          "type": "address"
        }
      ],
      "stateMutability": "view",
      "type": "function"
    },
    {
      "inputs": [],
      "name": "renounceOwnership",
      "outputs": [],
      "stateMutability": "nonpayable",
      "type": "function"
    },
    {
      "inputs": [
        {
          "internalType": "uint256",
          "name": "orderId",
          "type": "uint256"
        }
      ],
      "name": "settleOrder",
      "outputs": [],
      "stateMutability": "nonpayable",
      "type": "function"
    },
    {
      "inputs": [
        {
          "internalType": "uint256",
          "name": "",
          "type": "uint256"
        }
      ],
      "name": "settled",
      "outputs": [
        {
          "internalType": "bool",
          "name": "",
          "type": "bool"
        }
      ],
      "stateMutability": "view",
      "type": "function"
    },
    {
      "inputs": [
        {
          "internalType": "address",
          "name": "newOwner",
          "type": "address"
        }
      ],
      "name": "transferOwnership",
      "outputs": [],
      "stateMutability": "nonpayable",
      "type": "function"
    },
    {
      "inputs": [],
      "name": "unpause",
      "outputs": [],
      "stateMutability": "nonpayable",
      "type": "function"
    }
  ],
  "bytecode": "0x608060405260016003553480156200001657600080fd5b5060405162001952380380620019528339810160408190526200003991620001bf565b33806200006057604051631e4fbdf760e01b81526000600482015260240160405180910390fd5b6200006b8162000152565b5060017f9b779b17422d0df92223018b32b4d1fa46e071723d6817e2486d003becc55f0055600180546001600160a01b039384166001600160a01b0319918216178255600280549390941692169190911790915560066020527fdbf7dfb1b10537b92f8a90a98ea2652a215b1ccb1fe0411ff3d4cf38f89a466d805460ff1990811683179091557f8f94715c41861ded0243bcaee4debf8662069dc9307ad8ab30990ab1367ddaec80548216831790556103e86000527ff416400a389b2271c5c6051273e6b62961b6906215e5f4d9099a99323151c03f80549091169091179055620001f7565b600080546001600160a01b038381166001600160a01b0319831681178455604051919092169283917f8be0079c531659141344cd1fd0a4f28419497f9722a3daafe3b4186f6b6457e09190a35050565b80516001600160a01b0381168114620001ba57600080fd5b919050565b60008060408385031215620001d357600080fd5b620001de83620001a2565b9150620001ee60208401620001a2565b90509250929050565b61174b80620002076000396000f3fe60806040526004361061011f5760003560e01c8063715018a6116100a0578063a85c38ef11610064578063a85c38ef14610332578063adc02a6414610366578063b451d1a914610386578063b50e801d1461039c578063f2fde38b146103bc57600080fd5b8063715018a6146102b45780637cb591c0146102c95780637e750398146102df5780638456cb59146102ff5780638da5cb5b1461031457600080fd5b8063301aa87b116100e7578063301aa87b1461020a5780633f4ba83a1461024b5780635c975abb146102605780636273106a1461027f5780636d86e0441461029f57600080fd5b8063026b4fea1461012457806306183110146101395780631ac9612c1461017657806328345780146101b65780632a58b330146101e6575b600080fd5b610137610132366004610fea565b6103dc565b005b34801561014557600080fd5b50600154610159906001600160a01b031681565b6040516001600160a01b0390911681526020015b60405180910390f35b34801561018257600080fd5b506101a6610191366004611060565b60066020526000908152604090205460ff1681565b604051901515815260200161016d565b3480156101c257600080fd5b506101a66101d1366004611060565b60076020526000908152604090205460ff1681565b3480156101f257600080fd5b506101fc60035481565b60405190815260200161016d565b34801561021657600080fd5b5061015961022536600461108f565b80516020818301810180516005825292820191909301209152546001600160a01b031681565b34801561025757600080fd5b506101376107c4565b34801561026c57600080fd5b50600054600160a01b900460ff166101a6565b34801561028b57600080fd5b50600254610159906001600160a01b031681565b3480156102ab57600080fd5b506101fc603c81565b3480156102c057600080fd5b5061013761080b565b3480156102d557600080fd5b506101fc61038481565b3480156102eb57600080fd5b506101376102fa366004611140565b61081f565b34801561030b57600080fd5b506101376108c1565b34801561032057600080fd5b506000546001600160a01b0316610159565b34801561033e57600080fd5b5061035261034d366004611060565b610902565b60405161016d9897969594939291906111ed565b34801561037257600080fd5b506101376103813660046112ac565b6109dd565b34801561039257600080fd5b506101fc61012c81565b3480156103a857600080fd5b506101376103b7366004611060565b610a7d565b3480156103c857600080fd5b506101376103d7366004611300565b610aa8565b6103e4610ae3565b6103ec610b0e565b600060058787604051610400929190611322565b908152604051908190036020019020546001600160a01b03169050806104465786866040516337232f7f60e01b815260040161043d92919061135b565b60405180910390fd5b60008281526006602052604090205460ff1661047857604051639f44c9eb60e01b81526004810183905260240161043d565b603c831415801561048b575061012c8314155b801561049957506103848314155b156104ba576040516313b783af60e21b81526004810184905260240161043d565b346000036104db5760405163150a67e960e01b815260040160405180910390fd5b600154604051630c607acf60e01b81526001600160a01b0390911690630c607acf9061050f908a908a908690600401611377565b600060405180830381600087803b15801561052957600080fd5b505af115801561053d573d6000803e3d6000fd5b505050506000612710833461055291906113b9565b61055c91906113d0565b60025460405163f8b2cb4f60e01b81526001600160a01b0385811660048301529293506000929091169063f8b2cb4f90602401602060405180830381865afa1580156105ac573d6000803e3d6000fd5b505050506040513d601f19601f820116820180604052508101906105d091906113f2565b9050818110156105fd5760405163a17e11d560e01b8152600481018390526024810182905260440161043d565b600380546000918261060e8361140b565b90915550905060006106208742611424565b9050604051806101000160405280336001600160a01b031681526020018c8c8080601f0160208091040260200160405190810160405280939291908181526020018383808284376000920182905250938552505050602082018c90528a151560408301523460608301526080820189905260a0820184905260c0909101526000838152600460209081526040909120825181546001600160a01b0319166001600160a01b039091161781559082015160018201906106de90826114bc565b506040820151600280830191909155606083015160038301805491151560ff199283161790556080840151600484015560a0840151600584015560c0840151600684015560e0840151600784018054919390929190911690600190849081111561074a5761074a6111b5565b0217905550905050336001600160a01b0316827f13a0d3f6b937ea5fefac2c0e489ebc86d4939e182db7f677910a75a036d2461a8d8d8d8d348d89604051610798979695949392919061157c565b60405180910390a350505050506107bc60016000805160206116f683398151915255565b505050505050565b6107cc610b2a565b6107d4610b57565b604051600081527fda88b5dfaac55549d4ddddd43a09d4b911233df354952ebc9ac2041aa1853436906020015b60405180910390a1565b610813610b2a565b61081d6000610ba7565b565b610827610b0e565b8060005b818110156108a4573063b50e801d85858481811061084b5761084b6115ba565b905060200201356040518263ffffffff1660e01b815260040161087091815260200190565b600060405180830381600087803b15801561088a57600080fd5b505af192505050801561089b575060015b5060010161082b565b50506108bd60016000805160206116f683398151915255565b5050565b6108c9610b2a565b6108d1610bf7565b604051600181527fda88b5dfaac55549d4ddddd43a09d4b911233df354952ebc9ac2041aa185343690602001610801565b600460205260009081526040902080546001820180546001600160a01b03909216929161092e90611437565b80601f016020809104026020016040519081016040528092919081815260200182805461095a90611437565b80156109a75780601f1061097c576101008083540402835291602001916109a7565b820191906000526020600020905b81548152906001019060200180831161098a57829003601f168201915b505050600284015460038501546004860154600587015460068801546007909801549697939660ff938416965091945092911688565b6109e5610b2a565b80600584846040516109f8929190611322565b90815260405190819003602001812080546001600160a01b03939093166001600160a01b031990931692909217909155610a359084908490611322565b6040519081900381206001600160a01b0383168252907f77780d19d6f850ec861d508f6035068d0b68fb9d334887c55393910e9b2951ea9060200160405180910390a2505050565b610a85610b0e565b610a8e81610c3a565b610aa560016000805160206116f683398151915255565b50565b610ab0610b2a565b6001600160a01b038116610ada57604051631e4fbdf760e01b81526000600482015260240161043d565b610aa581610ba7565b600054600160a01b900460ff161561081d5760405163d93c066560e01b815260040160405180910390fd5b610b16610f19565b60026000805160206116f683398151915255565b6000546001600160a01b0316331461081d5760405163118cdaa760e01b815233600482015260240161043d565b610b5f610f49565b6000805460ff60a01b191690557f5db9ee0a495bf2e6ff9c91a7834c1ba4fdd244a5e8aa4e537bd38aeae4b073aa335b6040516001600160a01b039091168152602001610801565b600080546001600160a01b038381166001600160a01b0319831681178455604051919092169283917f8be0079c531659141344cd1fd0a4f28419497f9722a3daafe3b4186f6b6457e09190a35050565b610bff610ae3565b6000805460ff60a01b1916600160a01b1790557f62e78cea01bee320cd4e420270b5ea74000d11b0c9f74754ebdbfc544b05a258610b8f3390565b600081815260046020526040812090600782015460ff166002811115610c6257610c626111b5565b14610ca7576007810154829060ff166002811115610c8257610c826111b5565b604051630a78aad360e41b8152600481019290925260ff16602482015260440161043d565b60008281526007602052604090205460ff1615610cda576040516347f629af60e11b81526004810183905260240161043d565b600082815260076020526040808220805460ff191660019081179091558054915163f66a1b7160e01b81526001600160a01b039092169163f66a1b7191610d2791908601906004016115d0565b6040805180830381865afa925050508015610d5f575060408051601f3d908101601f19168201909252610d5c9181019061165b565b60015b610d975760008381526007602052604090819020805460ff191690555163d0cdbfc760e01b815261043d9060018401906004016115d0565b5090506000610da68383610f73565b90508015610eca5760078301805460ff191660011790556005830154600484015460009161271091610dd891906113b9565b610de291906113d0565b6002546040519192506001600160a01b0316906320f801d490600590610e0c90600189019061167f565b9081526040519081900360200181205487546001600160e01b031960e085901b1683526001600160a01b03918216600484015216602482015260448101849052606401600060405180830381600087803b158015610e6957600080fd5b505af1158015610e7d573d6000803e3d6000fd5b505085546040518481526001600160a01b0390911692508791507f3417499c22576a96a6fb7d02b8d63e7d1f4f94af0f25b52a930bbddfdfcf57649060200160405180910390a350610f13565b60078301805460ff1916600217905582546040516001600160a01b039091169085907fad69e57c5fbff40d58ba1a08b2ef5774b250c5d0f39dfe66f6ad9c3503bd1cf690600090a35b50505050565b6000805160206116f68339815191525460020361081d57604051633ee5aeb560e01b815260040160405180910390fd5b600054600160a01b900460ff1661081d57604051638dfc202b60e01b815260040160405180910390fd5b600382015460009060ff1615610f9157506002820154811215610f9b565b5060028201548113155b92915050565b60008083601f840112610fb357600080fd5b50813567ffffffffffffffff811115610fcb57600080fd5b602083019150836020828501011115610fe357600080fd5b9250929050565b60008060008060008060a0878903121561100357600080fd5b863567ffffffffffffffff81111561101a57600080fd5b61102689828a01610fa1565b909750955050602087013593506040870135801515811461104657600080fd5b959894975092956060810135946080909101359350915050565b60006020828403121561107257600080fd5b5035919050565b634e487b7160e01b600052604160045260246000fd5b6000602082840312156110a157600080fd5b813567ffffffffffffffff808211156110b957600080fd5b818401915084601f8301126110cd57600080fd5b8135818111156110df576110df611079565b604051601f8201601f19908116603f0116810190838211818310171561110757611107611079565b8160405282815287602084870101111561112057600080fd5b826020860160208301376000928101602001929092525095945050505050565b6000806020838503121561115357600080fd5b823567ffffffffffffffff8082111561116b57600080fd5b818501915085601f83011261117f57600080fd5b81358181111561118e57600080fd5b8660208260051b85010111156111a357600080fd5b60209290920196919550909350505050565b634e487b7160e01b600052602160045260246000fd5b600381106111e957634e487b7160e01b600052602160045260246000fd5b9052565b6001600160a01b0389168152610100602080830182905289519183018290526000918291905b80831015611232578b8301820151858401610120015291810191611213565b6101209250600083828701015282601f19601f8301168601019350505050876040830152611264606083018815159052565b8560808301528460a08301528360c083015261128360e08301846111cb565b9998505050505050505050565b80356001600160a01b03811681146112a757600080fd5b919050565b6000806000604084860312156112c157600080fd5b833567ffffffffffffffff8111156112d857600080fd5b6112e486828701610fa1565b90945092506112f7905060208501611290565b90509250925092565b60006020828403121561131257600080fd5b61131b82611290565b9392505050565b8183823760009101908152919050565b81835281816020850137506000828201602090810191909152601f909101601f19169091010190565b60208152600061136f602083018486611332565b949350505050565b60408152600061138b604083018587611332565b905060018060a01b0383166020830152949350505050565b634e487b7160e01b600052601160045260246000fd5b8082028115828204841417610f9b57610f9b6113a3565b6000826113ed57634e487b7160e01b600052601260045260246000fd5b500490565b60006020828403121561140457600080fd5b5051919050565b60006001820161141d5761141d6113a3565b5060010190565b80820180821115610f9b57610f9b6113a3565b600181811c9082168061144b57607f821691505b60208210810361146b57634e487b7160e01b600052602260045260246000fd5b50919050565b601f8211156114b757600081815260208120601f850160051c810160208610156114985750805b601f850160051c820191505b818110156107bc578281556001016114a4565b505050565b815167ffffffffffffffff8111156114d6576114d6611079565b6114ea816114e48454611437565b84611471565b602080601f83116001811461151f57600084156115075750858301515b600019600386901b1c1916600185901b1785556107bc565b600085815260208120601f198616915b8281101561154e5788860151825594840194600190910190840161152f565b508582101561156c5787850151600019600388901b60f8161c191681555b5050505050600190811b01905550565b60c08152600061159060c08301898b611332565b60208301979097525093151560408501526060840192909252608083015260a09091015292915050565b634e487b7160e01b600052603260045260246000fd5b60006020808352600084546115e481611437565b80848701526040600180841660008114611605576001811461161f5761164d565b60ff1985168984015283151560051b89018301955061164d565b896000528660002060005b858110156116455781548b820186015290830190880161162a565b8a0184019650505b509398975050505050505050565b6000806040838503121561166e57600080fd5b505080516020909101519092909150565b600080835461168d81611437565b600182811680156116a557600181146116ba576116e9565b60ff19841687528215158302870194506116e9565b8760005260208060002060005b858110156116e05781548a8201529084019082016116c7565b50505082870194505b5092969550505050505056fe9b779b17422d0df92223018b32b4d1fa46e071723d6817e2486d003becc55f00a2646970667358221220feb0309acb591edce0ec17c5ab7cc7ae71db3bb8ccc8cda46bc0ab44ab3ce71564736f6c63430008140033",
  "linkReferences": {},
  "deployedLinkReferences": {}
}